S0120000647269766572732056312E737265636C
S11300000C942A000C9477030C94A0030C94C90359
S11300100C9447000C9447000C9447000C946F0414
S11300200C9498040C94C1040C9421040C94F203D1
S11300300C9447000C9464050C94B3050C948C0543
S11300400C94DD010C9447000C9447000C94470079
S11300500C94470011241FBECFE5D8E0DEBFCDBF0E
S113006010E0A0E6B0E0ECEFFBE002C005900D92DA
S1130070A036B107D9F720E0A0E6B0E001C01D9298
S1130080A438B207E1F70E9491010C94FC050C948A
S11300900000CF93C82F41E063E085E00E94F102A5
S11300A040E063E086E00E94F102C4FB442740F98B
S11300B061E080E00E94F102C5FB442740F961E061
S11300C081E00E94F102C6FB442740F961E082E02E
S11300D00E94F1024C2F441F4427441F61E083E037
S11300E00E94F10241E063E087E00E94F1028FE99F
S11300F09FE00197F1F700C0000040E063E087E073
S11301000E94F1028FE99FE00197F1F700C000001F
S11301104C2F417061E080E00E94F102C1FB442752
S113012040F961E081E00E94F102C2FB442740F9FA
S113013061E082E00E94F102C3FB442740F961E0E0
S113014083E00E94F10241E063E087E00E94F10253
S11301508FE99FE00197F1F700C0000040E063E001
S113016087E00E94F1028FE99FE00197F1F700C058
S11301700000CF910895CF93C82F40E063E085E05D
S11301800E94F10240E063E086E00E94F102C4FBB9
S1130190442740F961E080E00E94F102C5FB442756
S11301A040F961E081E00E94F102C6FB442740F976
S11301B061E082E00E94F1024C2F441F4427441F57
S11301C061E083E00E94F10241E063E087E00E9485
S11301D0F1028FE99FE00197F1F700C0000040E0D1
S11301E063E087E00E94F1028FE99FE00197F1F755
S11301F000C0000080916000882389F14C2F417079
S113020061E080E00E94F102C1FB442740F961E013
S113021081E00E94F102C2FB442740F961E082E0E0
S11302200E94F102C3FB442740F961E083E00E948D
S1130230F10241E063E087E00E94F1028FE99FE070
S11302400197F1F700C0000040E063E087E00E94FE
S1130250F1028FE99FE00197F1F700C00000CF9110
S1130260089541E063E085E00E94180241E063E004
S113027086E00E94180241E063E087E00E941802D1
S113028041E061E080E00E94180241E061E081E029
S11302900E94180241E061E082E00E94180241E0FD
S11302A061E083E00E9418022FEF89EF90E0215073
S11302B080409040E1F700C0000080E30E94BB0052
S11302C08FE99FE00197F1F700C0000080E30E94EE
S11302D0BB008FE99FE00197F1F700C0000080E3C5
S11302E00E94BB008FE99FE00197F1F700C0000076
S11302F080E20E94BB008FE99FE00197F1F700C004
S1130300000081E0809360008CE00E94BB0086E0E6
S11303100E94BB0081E00E94BB0080E80E94BB00F9
S11303200895CF93DF93CDB7DEB72A970FB6F8942D
S1130330DEBF0FBECDBF0F2EF0E6EF2EF9E0FF2E8D
S1130340F02D01E020E043E060E083E00E94F5044A
S11303500E94310100E001C00F2D0E944905182FB1
S1130360FF24F394F00EE1E0F0E0EC0FFD1FE00F4A
S1130370F11D80830E9449001D3071F7E1E0F0E037
S1130380EC0FFD1FEF0DF11D1082CE0101960E94AE
S11303905105E2CFCF93C82F40E060E00E941802DD
S11303A087B1807E87B987B18C2B87B986B1806489
S11303B086B9C0936100CF9108951F920F920FB632
S11303C00F9211242F933F934F935F936F937F93D7
S11303D08F939F93AF93BF93EF93FF93E091630049
S11303E0F0916400309771F084B195B1099586B1AC
S11303F0806186B980916200813021F4809161002E
S11304000E94CA01FF91EF91BF91AF919F918F918B
S11304107F916F915F914F913F912F910F900FBEFC
S11304200F901F90189560E072E18AE790E00895BC
S11304306130E1F138F0623009F46CC0633009F4E2
S11304409DC00895413069F44AB321E030E0B90118
S113045002C0660F771F8A95E2F7CB01842B8ABB13
S1130460089541110EC04AB321E030E0B90102C041
S1130470660F771F8A95E2F7CB01809584238ABBA8
S11304800895423009F0ACC04BB321E030E0B9012B
S113049002C0660F771F8A95E2F7CB01942F982B41
S11304A09BBB9AB3809589238ABB0895413069F434
S11304B047B321E030E0B90102C0660F771F8A9587
S11304C0E2F7CB01842B87BB089541110EC047B3DB
S11304D021E030E0B90102C0660F771F8A95E2F788
S11304E0CB018095842387BB0895423009F078C0FE
S11304F048B321E030E0B90102C0660F771F8A9546
S1130500E2F7CB01942F982B98BB97B3809589235E
S113051087BB0895413069F444B321E030E0B90168
S113052002C0660F771F8A95E2F7CB01842B84BB48
S1130530089541110EC044B321E030E0B90102C076
S1130540660F771F8A95E2F7CB018095842384BBDD
S11305500895423009F044C045B321E030E0B901C8
S113056002C0660F771F8A95E2F7CB01942F982B70
S113057095BB94B38095892384BB0895413069F475
S113058041B321E030E0B90102C0660F771F8A95BC
S1130590E2F7CB01842B81BB089541110EC041B316
S11305A021E030E0B90102C0660F771F8A95E2F7B7
S11305B0CB018095842381BB0895423089F442B3F2
S11305C021E030E0B90102C0660F771F8A95E2F797
S11305D0CB01942F982B92BB91B38095892381BB37
S11305E00895613039F138F0623009F442C0633063
S11305F009F45EC00895413069F44BB321E030E062
S1130600B90102C0660F771F8A95E2F7CB01842BEC
S11306108BBB089541116AC04BB321E030E0B901AE
S113062002C0660F771F8A95E2F7CB018095842379
S11306308BBB0895413069F448B321E030E0B9013F
S113064002C0660F771F8A95E2F7CB01842B88BB23
S1130650089541114BC048B321E030E0B90102C014
S1130660660F771F8A95E2F7CB018095842388BBB8
S11306700895413069F445B321E030E0B90102C086
S1130680660F771F8A95E2F7CB01842B85BB08950B
S113069041112CC045B321E030E0B90102C0660F1E
S11306A0771F8A95E2F7CB018095842385BB089553
S11306B0413069F442B321E030E0B90102C0660F71
S11306C0771F8A95E2F7CB01842B82BB08954111F1
S11306D00DC042B321E030E0B90102C0660F771FBC
S11306E08A95E2F7CB018095842382BB08951F92FB
S11306F00F920FB60F9211242F933F934F935F9352
S11307006F937F938F939F93AF93BF93EF93FF93D5
S1130710E0916500F0916600309709F00995FF912A
S1130720EF91BF91AF919F918F917F916F915F9165
S11307304F913F912F910F900FBE0F901F901895DE
S11307401F920F920FB60F9211242F933F934F9342
S11307505F936F937F938F939F93AF93BF93EF9325
S1130760FF93E0916700F0916800309709F00995D4
S1130770FF91EF91BF91AF919F918F917F916F9175
S11307805F914F913F912F910F900FBE0F901F904B
S113079018951F920F920FB60F9211242F933F9327
S11307A04F935F936F937F938F939F93AF93BF9375
S11307B0EF93FF93E0916900F0916A00309709F09C
S11307C00995FF91EF91BF91AF919F918F917F9187
S11307D06F915F914F913F912F910F900FBE0F90AA
S11307E01F9018951F920F920FB60F9211242F93FA
S11307F03F934F935F936F937F938F939F93AF93A5
S1130800BF93EF93FF93E0917000F09171003097E4
S113081009F0099588B7816088BF8091740082BF10
S1130820FF91EF91BF91AF919F918F917F916F91C4
S11308305F914F913F912F910F900FBE0F901F909A
S113084018951F920F920FB60F9211242F933F9376
S11308504F935F936F937F938F939F93AF93BF93C4
S1130860EF93FF9380916F008823F1F080916C00E7
S11308708F5F80936C0090916B00891738F040E093
S113088060916E0080916D000E94F10280916C0075
S1130890843688F041E060916E0080916D000E9482
S11308A0F10210926C0007C0E0917200F0917300A5
S11308B0309709F0099588B7826088BFFF91EF915E
S11308C0BF91AF919F918F917F916F915F914F9164
S11308D03F912F910F900FBE0F901F9018951F926C
S11308E00F920FB60F9211242F933F934F935F9360
S11308F06F937F938F939F93AF93BF93EF93FF93E4
S1130900E0917C00F0917D00309709F00995FF910A
S1130910EF91BF91AF919F918F917F916F915F9173
S11309204F913F912F910F900FBE0F901F901895EC
S11309301F920F920FB60F9211242F933F934F9350
S11309405F936F937F938F939F93AF93BF93EF9333
S1130950FF93E0917A00F0917B00309709F00995BC
S1130960FF91EF91BF91AF919F918F917F916F9183
S11309705F914F913F912F910F900FBE0F901F9059
S113098018951F920F920FB60F9211242F933F9335
S11309904F935F936F937F938F939F93AF93BF9383
S11309A0EF93FF93809177008F5F80937700E091BE
S11309B07800F0917900309709F0099580917500DD
S11309C0909176009DBD8CBDFF91EF91BF91AF9149
S11309D09F918F917F916F915F914F913F912F9153
S11309E00F900FBE0F901F901895DF92EF92FF9219
S11309F00F931F93CF93DF93D82E162FC42FD22F8C
S1130A00611110C00E941302970122953295307F24
S1130A103227207F322740E050E00E94DA0521503F
S1130A2031090BC00E9413029701220F331F40E0CB
S1130A3050E00E94DA052150310980B58F7780BDDE
S1130A4030BD29B9DD0CDD0CDD0CDAB880B5806869
S1130A5080BD80E4189FB001112480E1D89F9001EB
S1130A60112410E0000F111F000F111F000F111FA0
S1130A704C2F50E0440F551F6068622B062B402B0F
S1130A8040BDDF91CF911F910F91FF90EF90DF90C8
S1130A9008955F9BFECF8CB108955D9BFECF8CB90A
S1130AA008950F931F93CF938C01C0E003C00E945D
S1130AB04D05CF5FF801EC0FF11D80818111F7CF57
S1130AC0CF911F910F9108951F920F920FB60F921D
S1130AD011242F933F934F935F936F937F938F933F
S1130AE09F93AF93BF93EF93FF938CB1E0917E00FC
S1130AF0F0917F000995FF91EF91BF91AF919F9184
S1130B008F917F916F915F914F913F912F910F90B2
S1130B100FBE0F901F9018951F920F920FB60F9251
S1130B2011242F933F934F935F936F937F938F93EE
S1130B309F93AF93BF93EF93FF93E0918200F09163
S1130B4083000995FF91EF91BF91AF919F918F9190
S1130B507F916F915F914F913F912F910F900FBEB5
S1130B600F901F9018951F920F920FB60F92112499
S1130B702F933F934F935F936F937F938F939F93A1
S1130B80AF93BF93EF93FF93E0918000F0918100C6
S1130B900995FF91EF91BF91AF919F918F917F91B3
S1130BA06F915F914F913F912F910F900FBE0F90D6
S1130BB01F901895A1E21A2EAA1BBB1BFD010DC0A4
S1130BC0AA1FBB1FEE1FFF1FA217B307E407F507F9
S1130BD020F0A21BB30BE40BF50B661F771F881FD5
S1130BE0991F1A9469F760957095809590959B016B
S10F0BF0AC01BD01CF010895F894FFCFC3
S9030000FC
